{
  "contractName": "SigFlow",
  "abi": [
    {
      "inputs": [
        {
          "internalType": "string",
          "name": "_name",
          "type": "string"
        },
        {
          "internalType": "string",
          "name": "_version",
          "type": "string"
        }
      ],
      "stateMutability": "nonpayable",
      "type": "constructor"
    },
    {
      "anonymous": false,
      "inputs": [
        {
          "indexed": false,
          "internalType": "uint256",
          "name": "value",
          "type": "uint256"
        },
        {
          "indexed": true,
          "internalType": "address",
          "name": "setter",
          "type": "address"
        }
      ],
      "name": "NumUpdated",
      "type": "event"
    },
    {
      "anonymous": false,
      "inputs": [
        {
          "indexed": false,
          "internalType": "uint256",
          "name": "value",
          "type": "uint256"
        },
        {
          "indexed": true,
          "internalType": "address",
          "name": "setter",
          "type": "address"
        },
        {
          "indexed": false,
          "internalType": "uint256",
          "name": "validPeriod",
          "type": "uint256"
        }
      ],
      "name": "OrderCanceled",
      "type": "event"
    },
    {
      "anonymous": false,
      "inputs": [
        {
          "indexed": false,
          "internalType": "uint256",
          "name": "value",
          "type": "uint256"
        },
        {
          "indexed": true,
          "internalType": "address",
          "name": "setter",
          "type": "address"
        },
        {
          "indexed": false,
          "internalType": "uint256",
          "name": "validPeriod",
          "type": "uint256"
        }
      ],
      "name": "OrderProcessed",
      "type": "event"
    },
    {
      "inputs": [],
      "name": "num",
      "outputs": [
        {
          "internalType": "uint256",
          "name": "value",
          "type": "uint256"
        },
        {
          "internalType": "address",
          "name": "setter",
          "type": "address"
        }
      ],
      "stateMutability": "view",
      "type": "function",
      "constant": true
    },
    {
      "inputs": [
        {
          "components": [
            {
              "internalType": "uint256",
              "name": "value",
              "type": "uint256"
            },
            {
              "internalType": "address",
              "name": "setter",
              "type": "address"
            },
            {
              "internalType": "uint256",
              "name": "validPeriod",
              "type": "uint256"
            }
          ],
          "internalType": "struct SigFlow.Order",
          "name": "_order",
          "type": "tuple"
        },
        {
          "internalType": "bytes",
          "name": "_signature",
          "type": "bytes"
        }
      ],
      "name": "setNum",
      "outputs": [],
      "stateMutability": "nonpayable",
      "type": "function"
    },
    {
      "inputs": [
        {
          "components": [
            {
              "internalType": "uint256",
              "name": "value",
              "type": "uint256"
            },
            {
              "internalType": "address",
              "name": "setter",
              "type": "address"
            },
            {
              "internalType": "uint256",
              "name": "validPeriod",
              "type": "uint256"
            }
          ],
          "internalType": "struct SigFlow.Order",
          "name": "_order",
          "type": "tuple"
        },
        {
          "internalType": "bytes",
          "name": "_signature",
          "type": "bytes"
        }
      ],
      "name": "cancelOrder",
      "outputs": [],
      "stateMutability": "nonpayable",
      "type": "function"
    }
  ],
  "bytecode": "0x608060405234801561001057600080fd5b50604051610ab3380380610ab383398101604081905261002f9161016d565b600080546001600160a01b031916331790558151602080840191909120825183830120604051610087937f8b73c3c69bb8fe3d512ecc4cf759cc79239f7b179b0ffacaa9a75d522b39400f93929146913091016101cd565b60408051601f19818403018152919052805160209091012060015550507f680b052dac17cd02891bed5605a3fe28ffc7324cd7d3b44950c39154199ee36060025561020f565b600082601f8301126100dd578081fd5b81516001600160401b03808211156100f7576100f76101f9565b6040516020601f8401601f191682018101838111838210171561011c5761011c6101f9565b6040528382528584018101871015610132578485fd5b8492505b838310156101535785830181015182840182015291820191610136565b8383111561016357848185840101525b5095945050505050565b6000806040838503121561017f578182fd5b82516001600160401b0380821115610195578384fd5b6101a1868387016100cd565b935060208501519150808211156101b6578283fd5b506101c3858286016100cd565b9150509250929050565b9485526020850193909352604084019190915260608301526001600160a01b0316608082015260a00190565b634e487b7160e01b600052604160045260246000fd5b6108958061021e6000396000f3fe608060405234801561001057600080fd5b50600436106100415760003560e01c80634e70b1dc146100465780635949791614610065578063f9adf14f1461007a575b600080fd5b61004e61008d565b60405161005c92919061083a565b60405180910390f35b610078610073366004610550565b61009f565b005b610078610088366004610550565b610149565b6003546004546001600160a01b031682565b336100b06040850160208601610522565b6001600160a01b0316146100df5760405162461bcd60e51b81526004016100d690610669565b60405180910390fd5b6100ea83838361027d565b6100fa6040840160208501610522565b6001600160a01b03167fcdc2a0009ea4fcb77753d005f40262a263915c174abf67d14f697a1079a791e28460000135856040013560405161013c929190610851565b60405180910390a2505050565b6000546001600160a01b031633146101735760405162461bcd60e51b81526004016100d6906107bf565b61017e83838361027d565b82604001354211156101a25760405162461bcd60e51b81526004016100d690610798565b82356003556101b76040840160208501610522565b600480546001600160a01b0319166001600160a01b03929092169190911790556101e76040840160208501610522565b6001600160a01b03167fed12d760fc6b17e98358116b0798e48b8173b11ebce17dc0b40ae6444bd3acea84600001356040516102239190610831565b60405180910390a261023b6040840160208501610522565b6001600160a01b03167f786060e4ebef47d1c785adcfe45053d5ab1067b1c5879ad7f85960148706c5b18460000135856040013560405161013c929190610851565b6002546000906102d89085356102996040880160208901610522565b87604001356040516020016102b194939291906105f0565b604051602081830303815290604052805190602001206001546103ae90919063ffffffff16565b9050600061031e84848080601f01602080910402602001604051908101604052809392919081815260200183838082843760009201919091525086939250506103e19050565b90506103306040860160208701610522565b6001600160a01b0316816001600160a01b0316146103605760405162461bcd60e51b81526004016100d6906106e9565b60008281526005602052604090205460ff161561038f5760405162461bcd60e51b81526004016100d690610801565b506000908152600560205260409020805460ff19166001179055505050565b600082826040516020016103c39291906105d5565b60405160208183030381529060405280519060200120905092915050565b600081516041146104045760405162461bcd60e51b81526004016100d6906106b2565b60208201516040830151606084015160001a6104228682858561042c565b9695505050505050565b60007f7fffffffffffffffffffffffffffffff5d576e7357a4501ddfe92f46681b20a082111561046e5760405162461bcd60e51b81526004016100d690610714565b8360ff16601b148061048357508360ff16601c145b61049f5760405162461bcd60e51b81526004016100d690610756565b6000600186868686604051600081526020016040526040516104c49493929190610614565b6020604051602081039080840390855afa1580156104e6573d6000803e3d6000fd5b5050604051601f1901519150506001600160a01b0381166105195760405162461bcd60e51b81526004016100d690610632565b95945050505050565b600060208284031215610533578081fd5b81356001600160a01b0381168114610549578182fd5b9392505050565b60008060008385036080811215610565578283fd5b6060811215610572578283fd5b50839250606084013567ffffffffffffffff80821115610590578384fd5b818601915086601f8301126105a3578384fd5b8135818111156105b1578485fd5b8760208285010111156105c2578485fd5b6020830194508093505050509250925092565b61190160f01b81526002810192909252602282015260420190565b93845260208401929092526001600160a01b03166040830152606082015260800190565b93845260ff9290921660208401526040830152606082015260800190565b60208082526018908201527f45434453413a20696e76616c6964207369676e61747572650000000000000000604082015260600190565b60208082526029908201527f4f6e6c79206f726465722063726561746f722063616e2063616e63656c20746860408201526832b4b91037b93232b960b91b606082015260800190565b6020808252601f908201527f45434453413a20696e76616c6964207369676e6174757265206c656e67746800604082015260600190565b602080825260119082015270496e76616c6964207369676e617475726560781b604082015260600190565b60208082526022908201527f45434453413a20696e76616c6964207369676e6174757265202773272076616c604082015261756560f01b606082015260800190565b60208082526022908201527f45434453413a20696e76616c6964207369676e6174757265202776272076616c604082015261756560f01b606082015260800190565b6020808252600d908201526c13dc99195c88195e1c1a5c9959609a1b604082015260600190565b60208082526022908201527f4163636573732064656e6965643a206f6e6c79206f776e65722063616e2063616040820152611b1b60f21b606082015260800190565b60208082526016908201527513dc99195c88185b1c9958591e48195e1958dd5d195960521b604082015260600190565b90815260200190565b9182526001600160a01b0316602082015260400190565b91825260208201526040019056fea2646970667358221220aa6b75b86706119ec07c090ba5a3b1400e69fd55f1c6ae345bd77f0f43459f8164736f6c63430008000033",
  "immutableReferences": {},
  "source": "// SPDX-License-Identifier: MIT\r\npragma solidity ^0.8.0;\r\n\r\nimport \"./ECDSA.sol\";\r\n\r\ncontract SigFlow {\r\n    using ECDSA for bytes32;\r\n\r\n    address owner;\r\n    bytes32 _DOMAIN_SEPARATOR_HASH;\r\n    bytes32 _ORDER_HASH;\r\n\r\n    struct Num {\r\n        uint256 value;\r\n        address setter;\r\n    }\r\n    Num public num;\r\n\r\n    struct Order {\r\n        uint256 value;\r\n        address setter;\r\n        uint256 validPeriod;\r\n    }\r\n\r\n    mapping (bytes32 => bool) executedOrders;\r\n\r\n    event NumUpdated(\r\n        uint256 value,\r\n        address indexed setter\r\n    );\r\n    event OrderProcessed(\r\n        uint256 value,\r\n        address indexed setter,\r\n        uint256 validPeriod\r\n    );\r\n    event OrderCanceled(\r\n        uint256 value,\r\n        address indexed setter,\r\n        uint256 validPeriod\r\n    );\r\n\r\n    constructor(string memory _name, string memory _version) {\r\n        owner = msg.sender;\r\n        _DOMAIN_SEPARATOR_HASH = keccak256(abi.encode(\r\n            keccak256(\"EIP712Domain(string name,string version,uint256 chainId,address verifyingContract)\"),\r\n            keccak256(bytes(_name)),\r\n            keccak256(bytes(_version)),\r\n            block.chainid,\r\n            address(this)\r\n        ));\r\n        _ORDER_HASH = keccak256(\"Order(uint256 value,address setter,uint256 validPeriod)\");\r\n    }\r\n\r\n    modifier onlyOwner() {\r\n        require(msg.sender == owner, \"Access denied: only owner can call\");\r\n        _;\r\n    }\r\n\r\n    function _validateOrder(Order calldata _order, bytes calldata _signature) internal {\r\n        // Validate signature\r\n        bytes32 orderHash = _DOMAIN_SEPARATOR_HASH.toTypedDataHash(keccak256(abi.encode(\r\n            _ORDER_HASH,\r\n            _order.value,\r\n            _order.setter,\r\n            _order.validPeriod\r\n        )));\r\n        address signer = orderHash.recover(_signature);\r\n        require(signer == _order.setter, \"Invalid signature\");\r\n\r\n        // Order should not be already executed\r\n        require(executedOrders[orderHash] == false, \"Order already executed\");\r\n        executedOrders[orderHash] = true;\r\n    }\r\n\r\n    function setNum(Order calldata _order, bytes calldata _signature) public onlyOwner {\r\n        _validateOrder(_order, _signature);\r\n        require(block.timestamp <= _order.validPeriod, \"Order expired\");\r\n        num.value = _order.value;\r\n        num.setter = _order.setter;\r\n        emit NumUpdated(_order.value, _order.setter);\r\n        emit OrderProcessed(_order.value, _order.setter, _order.validPeriod);\r\n    }\r\n\r\n    function cancelOrder(Order calldata _order, bytes calldata _signature) public {\r\n        require(_order.setter == msg.sender, \"Only order creator can cancel their order\");\r\n        _validateOrder(_order, _signature);\r\n        emit OrderCanceled(_order.value, _order.setter, _order.validPeriod);\r\n    }\r\n}\r\n",
  "sourcePath": "E:\\Falcon\\signature-flow-tutorial\\contracts\\SigFlow.sol",
  "compiler": {
    "name": "solc",
    "version": "0.8.0+commit.c7dfd78e.Emscripten.clang"
  },
  "schemaVersion": "3.4.16",
  "updatedAt": "2024-03-23T04:38:45.187Z",
  "networkType": "ethereum",
  "devdoc": {
    "kind": "dev",
    "methods": {},
    "version": 1
  },
  "userdoc": {
    "kind": "user",
    "methods": {},
    "version": 1
  }
}